:020000041000EA
:1000000000B5324B212058609868022188439860DF
:10001000D860186158612E4B002199600221596106
:100020000121F02299502B49196001219960352056
:1000300000F044F80222904214D00621196600F024
:1000400034F8196E01211966002018661A6600F04E
:100050002CF8196E196E196E052000F02FF8012189
:100060000842F9D1002199601B49196000215960AB
:100070001A491B48016001219960EB211966A021F2
:10008000196600F012F800219960164914480160C1
:100090000121996001BC002800D000471248134993
:1000A000086003C880F30888084703B5996A0420EC
:1000B0000142FBD001200142F8D103BD02B5186610
:1000C0001866FFF7F2FF186E186E02BD00000240BE
:1000D000000000180000070000035F00212200005C
:1000E000F4000018222000A00001001008ED00E03C
:1000F00000000000000000000000000074B24E7A12
:1001000000200420F7010010C3010010C5010010F9
:10011000C1010010C1010010C1010010C101001097
:10012000C1010010C1010010C1010010C701001081
:10013000C1010010C1010010C9010010CB01001065
:10014000CD010010CD010010CD010010CD01001037
:10015000CD010010CD010010CD010010CD01001027
:10016000CD010010CD010010CD010010CD01001017
:10017000CD010010CD010010CD010010CD01001007
:10018000CD010010CD010010CD010010CD010010F7
:10019000CD010010CD010010CD010010CD010010E7
:1001A000CD010010CD010010CD010010CD010010D7
:1001B000CD010010CD010010CD010010CD010010C7
:1001C00000BE00BE00BE00BE00BE00BEEFF3058054
:1001D000103800BEF2EB8871F891001018920010F0
:1001E0003802001090A31AE71E481F49086006C88D
:1001F00081F3088810471D480068002801D019487D
:10020000F3E70DA40ECC002902D000F012F8F9E7B4
:100210001749184A002000E001C19142FCD116495B
:100220008847164988471649884700BEFDE701C937
:1002300001C29A42FBD3704718920010C000002000
:10024000F815002050A70010000004200000042032
:1002500050A700100010042000100420000000002F
:10026000704700000000000008ED00E0000000D032
:10027000F8150020B0290020111B0010F903001010
:10028000091B0010F8B5C0460448054B10B5834261
:1002900003D0044B002B00D0984710BDF815002068
:1002A000F81500200000000006480749091A8B10C5
:1002B000C90FC91810B5491003D0044B002B00D04A
:1002C000984710BDF8150020F81500200000000028
:1002D00010B5074C2378002B09D1FFF7D5FF054B4C
:1002E000002B02D0044800E000BF0123237010BDA2
:1002F000801900200000000028640010054B10B594
:10030000002B03D00449054800E000BFFFF7CCFFF5
:1003100010BDC046000000008419002028640010B1
:10032000F0B5CE46474680B585B004F0C9F904F073
:10033000A3FBFA20000101F085FB8046002850D085
:10034000FF245A23FA227A21009404F021FFFF208F
:1003500004F044FF5A23FA227A214046009404F024
:1003600017FF404604F034FF204B214A02ACA38023
:10037000914638230027FF251E4E1DE04B46B188CD
:10038000DB88CA00521A32335A3232215A209BB2C9
:1003900092B2009504F068FF3300220032215A2007
:1003A0000197009505F004F9404604F0D1FBFA20CE
:1003B000800005F053FAA3790133DBB2A3713C2B23
:1003C000DCD16379A7710133DBB263713C2BD5D1EA
:1003D000237967710133DBB22371182BCED12771DA
:1003E000CCE705B0C0BCB946B046F0BD0C22000059
:1003F000A8100020B010002010B505F07DFA0028EC
:1004000001D1FFF78DFF002010BDC046094A8300CF
:100410009A1810B514684022544080322240064C8D
:10042000C000A44663441A60044B9C46604441608B
:1004300010BDC04604C0014004D00140004001404E
:100440000123D0228340120693629361094A8300FC
:100450009A1811684022514080320A400649C00073
:100460008C4663441A60054B9C46052360444360F8
:100470007047C04604C0014004D001400040014024
:100480008023DB051868000F7047C0460FB400B525
:10049000084883B001F08CFC049B002B07D005A911
:1004A0001800019101F0FCFA034801F081FC0120E1
:1004B00001F00EFB286400103864001070B5EFF3F3
:1004C000108C72B60D4D2B68002BFCD0BFF35F8FE4
:1004D0000724CB08C618C05C01230C40A3401C00B5
:1004E0000440034207D118433070BFF35F8F2C6084
:1004F0008CF3108870BD1000FFF7C8FF2C0100D0EE
:10050000F8B54746CE46884680B5EFF3108C72B6F4
:10051000214D2C68002CFCD0BFF35F8F9A422CD861
:10052000D4080727055D061901241740BC402C425A
:100530001FD007210127894609E0D408055D061967
:100540004C4639001440A1400C00294211D0013220
:100550009342F2D201204042BFF35F8F00220E4B44
:100560001A608CF3108800280FDBC0BCB946B04677
:10057000F8BD254310003570EEE7BFF35F8F002311
:100580002B608CF31088012040424346002BECD0B6
:100590000898FFF77BFFC0462C0100D0044A107872
:1005A000431CDBB2172B00D9102313707047C046D1
:1005B000E00F002010B5064B064C82B001000093FE
:1005C00018221F232000FFF79BFF02B010BDC0467A
:1005D0003C640010F02400200021044B044ABFF3C7
:1005E0005F8F02C39342FAD17047C046000100D02A
:1005F000800100D0054B064A1360064A1360536021
:100600009360D360136153619361704780808080F1
:1006100000E400E004E400E01F2318401E3B834098
:10062000002905D0C021044A490053501360704787
:10063000802201498B50FAE700E100E0012282406C
:10064000034B1B6813405A1E9341D8B27047C046F3
:1006500000E100E001238340014A13607047C04677
:1006600000E200E0084B10309B688000C358002B6C
:1006700007D0064A00209B1A2F229A424041C0B25E
:1006800070470020FCE7C04600ED00E0E40F0020CA
:1006900070B50D00EFF3108672B60F4A1368002B89
:1006A000FCD0BFF35F8F0D4B10309B6884001B594B
:1006B0000B4A934203D09D4201D000F0F5FF074B57
:1006C0009B681D51BFF35F8FBFF35F8F0022024B0A
:1006D0001A6086F3108870BD240100D000ED00E0A0
:1006E000CD010010F0B557464E46DE464546E0B512
:1006F00085B0060000911700EFF3108B72B66A4ABE
:100700001368002BFCD0BFF35F8F0025674B5D574C
:100710009A46002D00DAA9E06B00654C01935B1945
:100720009B009846A146C1444B4652469B791036E1
:100730001370604BB6009B6899590B1B2F2B33D954
:100740005D4B994200D0ACE0019B42469C465B4B1E
:100750006544AD0063535A4B0232A218043B9B1A06
:100760001B05584A5B0D651913436B80564B0121DD
:10077000AB80FF23AB71009BEF71AB604B460B432B
:1007800019004C4B9B689951BFF35F8FBFF35F8F8C
:100790000022454B1A608BF3108805B0F0BCBB46B5
:1007A000B246A946A046F0BD01200A008243D37993
:1007B0008C46BB4231D84546130044491B1B5B4164
:1007C0005943090D3D4B63533D4B02356519043BBD
:1007D0005B1B1B053B4D5B0D2B43AA464D466B80B7
:1007E0000425AC465546E044131F44441B1B1B051F
:1007F0005B0D1D434B46997100999D809960494658
:10080000DF71334B01431360BBE75800C018800011
:100810002018C179B9422FD902000623D356002BE4
:10082000F3DA02932B4B61460393131D9A4604237C
:100830005B429C46E14450464B461B1A1B055B0D30
:100840009C46204B957198466346404603439380EF
:10085000019B5A199200039BA418A380029B1C4A77
:10086000A371009B2260E771A3608AE700F01CFF80
:10087000002553465D574FE7908802934005131DAE
:100880009A46031561469C464046D444634604306C
:100890002018181AE0230005400D1B02184303908E
:1008A000C5E700F001FF4FE7240100D0A92900208F
:1008B000E40F002000ED00E0CD01001000A1FFFFDB
:1008C0001410002000E0FFFF01BDFFFFAAAA0000F6
:1008D0000148804701BD000070B501240443EFF3D7
:1008E0000581EFF3108C72B6214A1368002BFCD0FF
:1008F000BFF35F8F1F4B05001F4AED1A6D416A431E
:10090000120D1E4D8900AE6852B27658A6421CD018
:100910000621595691421CD012215956914222D09B
:100920001E215956914220D02A2159560324914222
:1009300010D0134B19781A708171BFF35F8F0022AA
:100940000B4B1A608CF3108870BDAB680D4C5C507B
:10095000EFE700246100091989005B18FF219971F4
:1009600009499980E5E70124F4E70224F2E7C0464B
:10097000240100D0E40F0020AAAA000000ED00E04E
:10098000A9290020CD01001001BDFFFF10B5084BC3
:10099000084C82B001000093002205232000FFF7DD
:1009A000AFFD002801DB1F23181A02B010BDC0469E
:1009B00058640010AD290020024B9C466144890018
:1009C000016070474000003470B5114C114DAC42CD
:1009D0000FD2FF262368002B0CD0FFF7DFFD0100AC
:1009E0002000FFF7E9FFA680BFF35F8F0834AC4219
:1009F000F0D370BDFFF7D2FD01002000FFF7DCFF50
:100A00002671BFF35F8F0834AC42E3D3F1E7C046F1
:100A1000F0150020F815002010B50400FFF7BEFD0A
:100A200001002000FFF7C8FFFF232371BFF35F8F92
:100A300010BDC04610B504000120FFF7BBFD034BFD
:100A4000C3189B002360BFF35F8F10BD40000034CC
:100A5000034B9C46614489000160BFF35F8F704780
:100A6000400000340A4B1968EFF3108072B60A6830
:100A7000002AFCD0BFF35F8F1B68BFF35F8F00229B
:100A80001A6080F3108840BF002000217047C046E4
:100A900088290020F0B5DE4657464E464546E0B56B
:100AA00083B0EFF3058203231340B54A99005258EF
:100AB0000091904601229A40B24B93461A60B24B85
:100AC00001932EE043469B881BB2002B00DB99E08C
:100AD00043469B79002B00D0DDE0434608241C5F91
:100AE000002C00DA06E143465A6963001B19DB005B
:100AF000D3189D68DC686B1C00D107E1A34B0099FB
:100B00009C4661449A6A0B69A81A9B1A984200D2C3
:100B10000D619E4800F0AEFB8C4200DDEAE000D1A2
:100B200026E15B4699484363434608229B5E99460B
:100B3000002BC7DB424652695B0092464B44DB0008
:100B40009A4453469E68DF6800F094FB8F42B9DCFC
:100B500000D100E1002F00DAE1E05246534654692B
:100B60001B69019A934200D1D4E0414652460820C5
:100B7000085E5288000421001043984704000D00CD
:100B800023002B4300D1CAE0002D00DBE7E030005A
:100B90003900001BA94153469860D96000229A5E33
:100BA000002A8FDB43465D6953009C18E4002C1932
:100BB000A768E4688C4200DD84E702D1874200D94F
:100BC00080E74646328108360DE08C4200D1D3E002
:100BD0001E000023F25E002A0ADB53009C18E4008A
:100BE0002C19A768E4689B18DB00EB188C42ECDD3D
:100BF00053461A804B46338043469B881BB2002BDA
:100C000000DA65E743461A69EFF3108172B613689C
:100C1000002BFCD0BFF35F8F43469E8801234246E2
:100C20005B42938036B21369BFF35F8F00221A6074
:100C300081F31088002E00DA4AE743465D690833E5
:100C400042469C467700BF19FF00EF19BB6860461B
:100C500098460823D15E9246FC68002907DA0EE028
:100C6000A2424FD018000023C15E002906DB4B00D2
:100C70005B18DB00EB18DA68A242F1DD5246068011
:100C80000023FE5E3980002EDCDA904643469B79D5
:100C9000002B00D121E7002342469371434646468C
:100CA0000821595E08364B1C24D0474689465569B1
:100CB00002E006004B1C18D04B005B18DB00E81864
:100CC0000A008C46E95E43881BB2002BF1DA01234F
:100CD0005B42DC178360C4604A4503D031803B89A6
:100CE00003803A81E1464B1CE6D14C46B846002CC5
:100CF00000DBF8E640BF03B0F0BCBB46B246A946F5
:100D0000A046F0BD9A684245ACD9B7E7631C00D055
:100D1000F4E6FEE6200023699847002825D15346D3
:100D200042461B8813811269EFF3108372B6116873
:100D30000029FCD0BFF35F8F4246514652880A809B
:100D40004246494651801269BFF35F8F002111600E
:100D500083F31088B6E6864200D8FBE6B2E60B487D
:100D600000F088FA0019694115E76568246807E70B
:100D7000854200D8D5E6BDE7874200D828E737E7A7
:100D80006C2900203C700540950A00100040054089
:100D900070B52E4C2569002D04D00A212C48FFF790
:100DA0000BFE70BD2B4E0321300000F059FAE660B7
:100DB000FFF7F4FB284B03229C46D02322701B062E
:100DC0001B6801216370254B6044A3600F238000E2
:100DD00020610220638063694942A1801980023149
:100DE000198647311D83585218315A5275325C3971
:100DF00099521832013199521832013199521832F0
:100E000001319952083518329D52023118329952E7
:100E10001832013199521832013199521832013188
:100E200099521832013199521832013199520C4BB2
:100E30000C49DC6001303562FFF72AFC01210320F8
:100E4000FFF7EAFB084B1D60A7E7C0462C10002007
:100E5000882900200040054040000034FFFF1000BA
:100E60006C290020950A0010386005400048704742
:100E70002C100020F8B51F0008AB1B7804001600EA
:100E8000002B08D100F0FEF932003B00121A8B4112
:100E9000002B00DA53E02269EFF3108072B613687A
:100EA000002BFCD0BFF35F8F0223E15E63694A0031
:100EB0005218D2009B18002937DB1A8862802269F9
:100EC000BFF35F8F0025156080F31088069A9E603F
:100ED000DF601A61079A5A615A8801325204520C33
:100EE000101C002A1FD082B25880080410432669C3
:100EF000EFF3108772B63268002AFCD0BFF35F8F21
:100F0000A2881A80A1802369BFF35F8F00221A6034
:100F100087F310880B4923788C4601329A40E368A6
:100F200063441A60F8BD0120DDE72369BFF35F8FDA
:100F300000221A6080F3108801204042F2E700206E
:100F4000F0E7C0463C20000070B501000469EFF3F3
:100F5000108C72B620680028FCD0BFF35F8F02208F
:100F60000D5E4C6968004019C0002418002D37DB65
:100F7000208848800869BFF35F8F002606608CF3E5
:100F80001088E36063880498013320615B0405984E
:100F90005B0CA26060611A1C002B1FD093B2280466
:100FA000628018430A69EFF3108C72B61368002B45
:100FB000FCD0BFF35F8F8B8823808D800B69BFF3DC
:100FC0005F8F00221A608CF310880B7801329A40F0
:100FD000CB6808498C4663441A6070BD0122DDE786
:100FE0000B69BFF35F8F00221A608CF31088012019
:100FF0004042F2E73C20000010B543890A149342B6
:101000001ADD53009B184269DB00D3180469EFF323
:10101000108C72B62268002AFCD0BFF35F8F5A880A
:10102000090494B2090C8A4208D00369BFF35F8FA8
:1010300000221A608CF31088002010BD802212025A
:1010400014435C80012302698371BFF35F8F002129
:1010500011608CF31088044902788C469340C26872
:10106000012062441360E8E73C20000040787047AC
:10107000F0B504000D0006267642F717C64636196D
:101080006F4100B582B08F4214D811D000F0FAF849
:1010900032003B00121A8B41002B17DC002B47D08B
:1010A0002000290000F0F8F802B080BCB846F0BD7E
:1010B0008642EBD90022002316001F0000F0E2F860
:1010C00032003B00121A8B41002BE7DD00F0DAF80A
:1010D00032003B00121A8B41002B0ADB00230193E4
:1010E000154B3200009315483B00FFF72DFF0028F9
:1010F000D6DB00239C46B046114A124E736A9F42CB
:1011000004D8B16A8845CBD99F42C9D11168EFF3A1
:10111000108072B60B68002BFCD0BFF35F8F136892
:10112000BFF35F8F6146196080F3108820BFE5E749
:10113000002AB5D0CAE7C046650A00102C1000206E
:10114000882900200040054070B5060000F09AF89C
:10115000FA2204000D00002330000021920000F06C
:101160000FFC8023001969411B06994202D301201C
:1011700002494042FFF77CFF70BDC046FFFFFF7F82
:10118000F0B5CE46474680B504000D0083B0EFF3BE
:1011900005878846002F3ED12E4EA1463378F06851
:1011A00004339B00816A1B58601A5B1A98420ED365
:1011B00020BF294900204B6AAB4203D38A6A013021
:1011C000944231D803B0C0BCB946B046F0BD00F07F
:1011D00059F822002B00121A8B41002B2FDB1F4BDA
:1011E0002200009330002B000197FFF7ADFE011E97
:1011F00025DD194B5A6AAA421BD220BF3000FFF7E7
:10120000FBFE154A0020536A4345DBD3926A013046
:101210009145D7D908E0104900204B6AAB42D1D3A1
:101220008A6A0130A242CDD25B1B5A1E9341D8B2CA
:10123000C8E79B6A9C42E1D9AA42DFD1DDE7064AB2
:101240000020536A4345BDD3926A01209145B9D924
:10125000EAE7C0462C10002000400540650A001057
:1012600010B5024A0248FFF729F910BD7464001056
:10127000F42400200300416A0A00986A596A8A42ED
:10128000FAD17047034B596A0A00986A596A914229
:10129000FAD1704700400540064A536A9942FCD88B
:1012A00007D1044B02E05A6A914202D19A6A824203
:1012B000F9D3704700400540F8B5DE464E46574624
:1012C0004546E0B58B4605000A991800160000F067
:1012D000C9FA0A9B6C001F02324B64199C46A40099
:1012E0006444636881469F4200D967602B1FDBB26C
:1012F0009846012B30D9C02380229B01E3181201AC
:101300001A60294BAD0059599A4600291BD1730127
:10131000E026226853401E40802342465B01E318CA
:101320001E60012A30D9802380229B01E31812011C
:101330001A6053464A4667605A51F0BCBB46B246F3
:10134000A946A046F8BD586900F08CFA0130430068
:101350001B18033BFDD2DAE75B46012BCBD1C02340
:1013600003229B01E3181A60023AA3681A42FCD0D8
:101370007301E0262268AD0053401E4080230A4AD4
:101380005B019246E3181E605A46216851400322D1
:101390000A401A6001225B469A40A3681A42FCD0B8
:1013A000C1E7C04600800040F8240020F0B5464662
:1013B0004F46D646C0B51F00344B44009C46241807
:1013C000A4006444636888461600FF2B02D880237B
:1013D0005B006360031FDBB29A46012B30D9C02348
:1013E00080229B01E31812011A60294B850059598C
:1013F000994600291BD17301E026226853401E4004
:10140000802352465B01E3181E60012A30D98023F5
:1014100080229B01E31812011A6080235B00636045
:101420004B465F51E0BCBA46B146A846F0BD58698C
:1014300000F018FA013043001B18033BFDD2DAE735
:101440004346012BCBD1C02303229B01E3181A6032
:10145000023AA3681A42FCD07301E0262268850094
:1014600053401E4080230A4A5B019146E3181E60E8
:1014700042462168514003220A401A600123424635
:101480009340A2681342FCD0C1E7C04600800040F0
:10149000F8240020014B8000C0587047F824002039
:1014A000F8B5040021481E0017000D0000F0DAF91D
:1014B0000100380000F0D6F9069B36041B031E43DA
:1014C0002368002B20DB1A4B1A49E3185A1E93415C
:1014D0008022920194465B421B0B174A1B03634414
:1014E0001360164A13601F000A689743FBD1144B20
:1014F0002560E2182123A06013602368002BFCDA2A
:101500000823E6601360F8BD3F2322681340AB4216
:10151000D9D1A3681B051B0D8342D4D1EE22E36809
:10152000D2021340B342CED1EDE7C046001BB70054
:101530000040FDBF08C0004000E0004000F0004057
:101540000430000010B580241C4BE4051C6000280A
:101550001AD001231A4C18431A4BDC611A4C444030
:101560001C62596298628021144BC90519601748A2
:1015700017490860E021C9041960002A07D18022B8
:10158000144B12061A6010BD0E4BD861EBE75301E5
:101590009B1A9B009A18802312015B049A4209D27D
:1015A00013000D490B60074B5A608022094BD2058E
:1015B0001A60E8E7094B1A00F3E7C04600B005409F
:1015C000D3C007B0008005402D3FF84FFCFF01005D
:1015D0000820014000A005405C290020FFFFFF001B
:1015E0008023024A9B000B43D36270470080054072
:1015F000142310B50100188804331B88984710BDC8
:10160000162310B50100188802331B88984710BDB7
:10161000F8B54746CE4680B50F1E19D0142399461B
:10162000043304000025012698464B46188843469B
:1016300021681B88984701C4431E984101354042E8
:101640000640AF42F1D13000C0BCB946B046F8BD4B
:101650000126F8E7142370B50400188804331B88AA
:101660000D000549984703000020002C01DB0130E4
:10167000A04029009847C04655420000AA23064AC8
:101680001B0113602F230549D360054B1960536874
:10169000002BFCDA7047C0460040024000B0FA0060
:1016A000006002407047C04610B50148FEF7EEFEEC
:1016B0009864001070B5074D074EB54209D200245A
:1016C000013E761BB60808CD984723000134B3428B
:1016D000F9D170BDE06300101C640010054B064A90
:1016E00006491A60064A074B1A6010000B689843B7
:1016F000FBD1704700E00040BFCDFBFE08C00040BA
:10170000FE7F3C0000F00040044BDB6C002B03D15B
:101710008022034BD2021A607047C046000011506D
:101720004C201150044A054B1A60054A1368DB012E
:101730008033FBD17047C046FFFFFF0100F000403F
:1017400008C000404022034B9A675A671A67DA665E
:101750007047C04600F0014010B5FEF73DFF10BDD8
:1017600070B5044D044CA968C022200000F08AF92D
:10177000AC6070BD00ED00E000000020002310B55B
:10178000294C82B0A367FFF779FF0122274B1A602B
:10179000636C012BFCD10322254B1A60224A936B08
:1017A000012BFCD1013300930121224A224804334A
:1017B000FFF776FE052301210093204A2048FFF71A
:1017C0006FFE0022022104201E4BFFF7EFFD0022D6
:1017D000012105201C4BFFF7E9FD00220021072015
:1017E0001A4BFFF7E3FD002200210820174BFFF7FB
:1017F000DDFD8023DB000093002200210920134B34
:10180000FFF75AFD0022104B00210620FFF7CEFD06
:101810000420FFF73FFE0E4900F024F801000020ED
:10182000FFF7DEFE02B010BD008000403CB000407B
:1018300030B00040002F685900800240008C86477D
:1018400000C00240001BB70040597307006CDC0267
:1018500040420F0001480421014B1847501000205E
:1018600011160010114A936F9B0813D2106651662F
:10187000002905D0FFE7FFE7FFE7516F106F7047C2
:1018800004B5002801D00020C04304F061FD002110
:1018900004BDC046F0B5146E556E576F166FFFF756
:1018A000E5FF1466556657671667F0BD000000D067
:1018B000132370B51D78012D19D014DD1F48FFF7D3
:1018C0009FFE06001E48FFF79BFE1E4C8022310043
:1018D000200000F0D7F8022D2DD01B48FFF788FE1E
:1018E0001A4B186070BD1A4B164CA364F5E7184BE1
:1018F000144C23606360A360E36023616361A361B0
:10190000E36123626362A362E36223636363A363AD
:10191000E36323646364A364E36423656365A3658D
:10192000E36523666366A366E36623676367A3676D
:10193000E367A364D1E7064BA364CEE753440000FA
:1019400053460000801700204C33000084290020FB
:101950005519001007B5604601880A0A0230DF2ACF
:10196000FAD1C9B2820804D3028840880004104327
:1019700000E00068014A5050039007BD8017002026
:1019800051434343C9188C46110C83B24B4310B4E6
:10199000040C614392B280B2504362431C041B0C9E
:1019A000001910BC59411304120CC0185141614474
:1019B00070470000132310B512481C78FFF720FE73
:1019C0000100012C0AD003DD80220F4800F05AF8F4
:1019D0000E48FFF70DFE0E4B186010BD0A4C542246
:1019E000200000F04FF80B4B6365A365E3652366A9
:1019F0006366A366E36623676367A367E36723629F
:101A0000E361E5E753460000801800204C330000F6
:101A100084290020191A001007B5604601880A0AB7
:101A20000230DF2AFAD1C9B2820804D30288408882
:101A30000004104300E00068014A5050039007BDC5
:101A40008018002010B5040004F096FB002804D094
:101A5000034B04199C4200D810BD0248FEF716FD46
:101A600000000420A464001001480421014B184721
:101A70006010002011160010014B1B681847000071
:101A800060100020014B5B681847000060100020C8
:101A900010B5002800D110BD00F03EF9FBE7C046AC
:101AA00010B5094A0300146884B0002C08D0012244
:101AB00000910648524203A9A047012004B010BD7E
:101AC00000F076F90020F9E758290020911A00105B
:101AD00000BEFDE7094A03001068002805D0084948
:101AE000C3188B4207D81360704706480449C318CF
:101AF00010608B42F7D901204042F5E754250020C1
:101B000000000420B029002010B5FFF7E1FFC04617
:101B100070B5FFF7CFFD074D074EB54209D200243F
:101B2000013E761BB60808CD984723000134B34226
:101B3000F9D170BD1C64001028640010030010B5BA
:101B4000080011001B68984710BDC046F0B5C64696
:101B500000B5437D07000D001600002B38D0002A89
:101B60002EDD00216A1E90466A5C037D4C1C00201D
:101B70000A2A0CD0A64216D043461B5D21000D3B1D
:101B80005A4253416A5CDBB24C1C0A2AF2D1002B48
:101B9000F0D1884217DB022110483B689847A642E3
:101BA00007D02000E8E7864203DD311A3B68281899
:101BB0009847AD19013D2B780D3B5A4253413B7577
:101BC00080BCB846F0BD091A3B6828189847E2E780
:101BD0000368110028009847F2E7C0460466001029
:101BE000F0B5DE4657464E464546E0B585B017008F
:101BF0001C0006000D00FFF745FB0023314A1218B8
:101C00004B41802109068B4202D301222E4B5242C6
:101C10002E4908008A4604F0BBFB01906B1C03D1DF
:101C2000300004F0D7FA0500002C26D0284B984647
:101C3000284B1C68002C15D0002F21D1264F02E024
:101C40002469002C0ED02368002BF9D03B68002BB0
:101C500001D09C42F4D120002A003100C047246901
:101C6000002CF0D1019B002B28D1280005B0F0BC3E
:101C7000BB46B246A946A046F0BD184B9846D7E7EA
:101C8000154B994602ABDF1D0A239B4602E02469EF
:101C9000002CE7D02368002BF9D04B461B68002BA3
:101CA00001D0A342F3D12A0031002000C0475B4697
:101CB0000122390020003B70C047E8E7504604F09D
:101CC00037FBD2E740420F00FFFFFF7FF0150020F7
:101CD0004D1B001048250020502500203D1B001002
:101CE0000A4A1368002B05D10CE01A001B69103258
:101CF000002B07D09842F8D1002902D10369136064
:101D0000016170470029FCD01060FAE748250020E7
:101D100010B500F08DFA10BDF0B5CE46474680B53F
:101D200083B06B460600DD1D2870FFF7ABFA002379
:101D30001A4A12184B41802109068B4202D3012214
:101D4000174B524217490800884604F021FB164BF6
:101D500081461C68002C14D0144F02E02469002C2A
:101D60000FD02368002BF9D03B68002B01D09C4298
:101D7000F4D1200001222900FFF7E8FE2469002C9D
:101D8000EFD14B46002B05D1300003B0C0BCB946A3
:101D9000B046F0BD404604F0CBFAF5E740420F00F4
:101DA000FFFFFF7FF0150020482500205025002070
:101DB00070B5040004F00EFA0123010005000122B1
:101DC0002000FFF70DFF084B1C68002C06D063684D
:101DD000002B05D098472469002CF8D1280070BD4D
:101DE0002469002CF3D1F9E7482500207047C0464C
:101DF0000022014B1A707047AA2900204B7900205D
:101E0000FF2B0BD18B79002B08D1CB79012B05D17E
:101E1000082A03D9024B8A7809301A707047C046E5
:101E2000AA2900200120704710B5012901D0012006
:101E300010BD13495379107909781B020343002020
:101E40009942F5D15378012B08D0022BF0D1002014
:101E500064220021FFF776FB0120E9E7D37891782F
:101E60001B021943DB0507D54A0A100001231A405B
:101E70007E331940FFF7EEFB01204A0A4042F5E7A6
:101E8000AA29002000487047D066001070B50500F0
:101E900014000120012909D153780020012B05D11C
:101EA000637912791B021343072B00D070BD210008
:101EB0002800024A9F3301F049FAF7E7286600102C
:101EC0000123037000487047086600104B780A78B9
:101ED0001B0213438A7810B512041A43CB781B06F1
:101EE00013439622D200934200D010BD002201205D
:101EF00011004042FFF7AEFB024B1860024B196025
:101F00007047C046E8240020EC24002010B5024BA6
:101F10001878FEF79FFB10BDAB290020154B70B55C
:101F20001A68002A22D0EFF3108172B610680028D8
:101F3000FCD0BFF35F8F00200F4A596010701B6800
:101F4000BFF35F8F186081F31088002400250B4ECB
:101F50003078FEF773FB002804D100240025290007
:101F6000200070BD3078FEF775FBF8E7FA240025F5
:101F7000A400ECE764290020AC290020AB29002054
:101F800070B5040000200E0001F0F8FA002836D0E9
:101F9000002001F00BFB002831D0FFF773F900237C
:101FA000184A12184B41802109068B4216D2164D51
:101FB000280004F0EDF9002821D0002001F0DEFA1D
:101FC00000280FD101200021404200F0F3FC03243F
:101FD0006442280004F0ACF9200070BD01220B4BD4
:101FE0005242E4E7002001F0E1FA0028EAD02100A3
:101FF0003200002001F0E6FA041EEAD1E7E70324EC
:102000006442E9E740420F008C290020FFFFFF7F78
:1020100010B5FFF737F900230E4A12184B41802103
:1020200009068B4202D301220B4B52420B4C20007B
:1020300004F0AEF900280CD001200021404200F04D
:10204000B9FC002001F00AFB0028F5D1200004F0C3
:102050006FF910BD40420F00FFFFFF7F8C29002069
:10206000F8B5DE46574680B505000C00FFF70AF9C3
:102070000023374A12184B41802109068B4202D3B4
:102080000122344B5242344908008A4604F080F958
:10209000002803D1C0BCBB46B246F8BD002001F009
:1020A0006DFA00284AD00026002C43DD2B4B9B46BE
:1020B00014E0A919002001F00DFB07000120002108
:1020C000404200F077FC002001F0C8FAFFF7DAF890
:1020D000224BF61918605960B4422BDD002001F044
:1020E00019FBA71B0200B84200DD3A00002AE0D12C
:1020F00001200021404200F05DFC002001F0AEFA1A
:10210000002001F03BFA002814D0002001F002FB6F
:102110000028E1D1FFF7B6F85B460F001A685B684C
:10212000002184460E4812184B419F4202D8D3D159
:102130009445D1D9504604F0FBF8ABE700200021CC
:10214000064B18605960504604F0F2F8A2E7C0460A
:1021500040420F00FFFFFF7F8C29002078170020EE
:1021600020A1070030B52B4C85B00021200004F0E1
:10217000F7F800281CD1284B1A68002A16D0EFF374
:10218000108172B610680028FCD0BFF35F8F012465
:102190002248596002781B68D2B20470BFF35F8F87
:1021A0000020186081F31088002A17D005B030BDD8
:1021B00001200021404200F0FDFB002001F0F6F973
:1021C0000500200004F0B4F8002DEFD0144B1B687C
:1021D000002BEBD0134A10689847E7E7FEF746FE5E
:1021E0000400FFF74FF8FA220023920012184B4127
:1021F000802109068B4202D301220B4B524201215E
:10220000029100210191094920000091FEF732FE60
:10221000CCE7C0468C29002064290020AC2900208E
:10222000E8240020EC240020FFFFFF7F1D1F00108A
:10223000D02310B51B0684B01C68FEF717FEFEF70E
:1022400015FFA04202D0002004B010BD294B1B781E
:1022500001F06AFD28480368002B47D00120FEF7F3
:1022600095FBFF23254C264920701840FEF710FAF5
:1022700020780121FEF7D0F90520FEF7F3F90028B8
:1022800026D1082200211F48FFF7F6FBFEF7EEFDDE
:102290000400FEF7F7FFFA220023920012184B41C8
:1022A000802109068B4202D30122174B52420121A1
:1022B000029100210191154920000091FEF7DAFDFD
:1022C0000028C0DB12480121FFF70AFD0120BBE70F
:1022D0000120FEF76FF90B4B01001800FEF7B8FB69
:1022E000002205200B49FEF7FDF9EBE7FEF794FB12
:1022F000B4E7C046149200108C290020AB290020BE
:102300006521001064290020FFFFFF7F1D1F0010C2
:10231000701000200D1F0010004870476C670010FF
:10232000004870471867001010B50400174803787C
:10233000002B20D0002C06D1154B16484380063BBD
:10234000FF3B038010BD052C19D8134BA400E058A7
:1023500012490123013804E001330A800231142BB1
:102360000FD0C25C002AF7D1C022DBB25B00920022
:1023700008481343E5E7112100F01AF8DAE70020D6
:10238000E0E7CA2303489B00DBE7C046942900200E
:1023900009040000202500200067001022250020ED
:1023A00010B5024800F0D8F810BDC0467C290020C6
:1023B00030B54B1E012900D1A7E0664A11780D09FE
:1023C0002C0030349F2900D9A2E00470012B00D1E9
:1023D000BEE00F21147821400C003034092900D9C7
:1023E00098E04470022B00D1B2E05478250929000E
:1023F00030319F2C00D990E08170032B00D1A7E0F1
:102400000F2121400C003034092900D987E0C47025
:10241000042B00D19CE094782509290030319F2CB1
:1024200000D97FE00171052B00D191E00F212140FF
:102430000C003034092900D976E04471062B00D114
:1024400086E0D4782509290030319F2C00D96EE030
:102450008171072B00D17BE00F2121400C0030342B
:10246000092966D8C471082B00D171E014792509B7
:10247000290030319F2C5FD80172092B68D00F21C1
:1024800021400C003034092958D844720A2B5FD0FF
:1024900054792509290030319F2C52D881720B2B99
:1024A00056D00F2121400C00303409294BD8C4727A
:1024B0000C2B4DD094792509290030319F2C00D95F
:1024C000073101730D2B43D00F2121400C00303414
:1024D000092901D937310C0044730E2B38D0D1793A
:1024E0000C09220030329F2900D9073282730F2B4A
:1024F0002ED00F220A4011003731092A01D830327C
:102500001100C173102B23D010300023037030BD95
:1025100007345AE737310C0063E707316CE737318E
:102520000C0074E707317DE737310C0085E7073190
:102530008EE737310C0095E707319DE737310C0006
:10254000A3E70731AAE737310C00C4720C2BB1D1D5
:10255000C018DAE77C29002010B588B004000D22ED
:1025600000216846FFF788FA0D22002104A8FFF732
:1025700083FA4B236A466846137004A90D2203F0C0
:10258000CFFE1521082220006944FFF77BFA08B02E
:1025900010BDC046F8B500F03BF90C23184DFF22E2
:1025A000AB6705201749FEF79DF8174C4022002124
:1025B0002000FFF761FA4027002301262121134A5A
:1025C00066702783A260136063545F31618445396C
:1025D00063540F4A0F496360E2602787A1620B6072
:1025E0006362E26203F0E4FE80239B052E64EB64E9
:1025F0009023094AEA508022084B5202DA64F8BD5F
:1026000000001150A1040020582500208400105023
:10261000000110508000105010D001000020115017
:1026200010B501210520FDF7F7FF10BD10B5002200
:102630000021024800F00CF910BDC04678250020AA
:10264000044B1970002904D080219023024A89028A
:10265000D1507047A6290020002011500B785B064E
:1026600002D14B78052B00D070478A78014B1A6055
:10267000FAE7C04600001150F0B5C64600B5CC7868
:1026800088780A794B797F21A40701401B02C5098C
:1026900013434F00A20F1400324E7A195201B218A0
:1026A000907001206840507000205B055B0DD07079
:1026B0001383D4768046CA00012D33D02A4884463D
:1026C000880162448446B44460468260404610609B
:1026D000002933D0254AC9009046624641445160E2
:1026E0003F223F339343022C00D15B0020487A19EC
:1026F00001685201B218D1601E4ACB1803605140E4
:102700005A40802388465B019A4228D84346A40653
:102710001C4380237F197F01F61972681B0623432F
:10272000136011E014488446880162448446B4442E
:102730006046826240461060002909D100236D0185
:1027400075196B600D4BEB60012080BCB846F0BD85
:10275000084AC9009046624641445162C0E7FEF70C
:10276000A3FFD3E758250020840010500400105028
:10277000602900200000105080001050000110500F
:1027800010B503F015FE10BD10B57F200C002040E1
:102790004000E409110000191A00034B4001C01861
:1027A00000F056F8012010BD582500207F231800A6
:1027B00010B50840CA090B4203D107497D3B9B1A5B
:1027C0008B66400080188022044B40010021C01815
:1027D000120103F0FDFD10BD00201150582500200E
:1027E0007F22130010B50B400A4200D110BDC90969
:1027F0005B005B1804485B01C018002300220349FA
:10280000C37003F0E5FDF1E758250020FFF7FFFF57
:1028100080220A4B520410B51A60094B09491A600C
:1028200010000B689843FBD180220021520106481A
:10283000FFF722F90922054B5A6710BD00E000405E
:1028400000F0004008C0004000001050000011508F
:10285000002310B5C38201338282837601610400B4
:1028600003F06EFD002804D080219023074A8902DE
:10287000D150200003F0A4FD002802D001232377CB
:1028800010BD200003F08CFDFAE7C0460020115077
:102890007047C0467047C046002070470020704710
:1028A0007047C0467047C0467047C0467047C04634
:1028B000024B5878431E9841C0B270470020002058
:1028C000024B18784007C00F7047C0460020002018
:1028D000F8B54746CE4680B52B4F06003B78FF2B18
:1028E00004D00120C0BCB946B046F8BD0021542236
:1028F0002648FFF7C1F80022254C264B20001A700D
:10290000FEF78AF8244B1C60244C2000143CFEF790
:1029100091F8200001F0F2FD214B224D1C60224B6A
:10292000002B27D02800FFF7CBFA204B2A7818601D
:102930001F49002489461D490023884610E043466C
:102940001B6862019B18002B12D05B68002B0FD014
:1029500098472A780134E4B2511C2300A1420BDBD2
:10296000A242ECD89B1A5B014B445B68002BEFD171
:102970000020B7E72A78DBE730003E70FFF70AFE59
:102980003000FFF74DFEACE7A4100020002000202F
:10299000B81F0020A7290020542000209C100020F0
:1029A00058200020A5290020C11E0010D41C0020A2
:1029B00028680010F0B5DE4657464E464546E0B55D
:1029C000C84B91B002931B78FF2B00D13EE1C64B60
:1029D000C64E9B465F46C64B0DAC0193C54B00935C
:1029E00035686A69EFF3108172B61368002BFCD06A
:1029F000BFF35F8FA9612800210001F0ADFB6A6978
:102A0000AB69BFF35F8F0021116083F3108800284A
:102A100000D11BE16378082BE2D89B00FB589F464E
:102A20006368002BDCD0A0689847D9E77F22217922
:102A3000AF4D0A405300EB189846C8098044404601
:102A40000123303005799D430571057903339D439A
:102A50000571002A00D100E14346A74A1B7D127888
:102A6000934200D3EFE0A54A5B011568ED18002DF5
:102A700000D1EBE0A36862792078AD69A847AFE7A1
:102A80009F4A1378002B00D1E0E01378013BDBB2C2
:102A900013701378002BA3D10122954D01212B78BF
:102AA000042013432B703423EA5C8A43EA54EA5C23
:102AB0008243EA540133EA5C8A43EA54EA5C824383
:102AC000EA54237800209B4600F0A0FC6022237982
:102AD0001A40602A00D1EFE0402A00D1F5E0DB0681
:102AE000DB0E012B00D113E1022B00D1C7E0002B3C
:102AF00000D0E1E0202A00D11CE2002A00D0DBE077
:102B00006379092B00D9D7E07E4A9B00D3589F46B2
:102B1000774D2B78DB0700D462E7FFF7C7FE5FE74E
:102B2000019BDB78DB0700D45AE76068FFF7B2FE51
:102B300056E76F4D2B78DB0700D451E72878000764
:102B4000C00FFFF7B1FE4BE723786A4999468B46E1
:102B5000694B6A4998468A4639001A7847460023E5
:102B6000B04600254E46894610E053461B686A0170
:102B70009B18002B00D176E0DB68300098473A784C
:102B80000135EDB2511C2B008D4244DC9542ECD353
:102B90009B1A5B015B44EFE7237858499946564BF3
:102BA0008A4698463100BB464E461A7800250023D7
:102BB000474689460FE053461B686A019B18002B65
:102BC00055D0DB68300098473A780135EDB2511C9A
:102BD0002B008D4207DC9542EDD39B1A009A5B01D6
:102BE00094466344EDE7019D542200212800FEF73E
:102BF00043FF1022FF214448FEF73EFF2800202219
:102C0000FF2114304E465F46FEF736FF00F0F4FB1E
:102C1000FFF748FEE4E6364D542200212800FEF777
:102C20002BFF1022FF21281DFEF726FF280020225F
:102C3000FF21143046464F46FEF71EFF00F0DCFB36
:102C40002379AB70CCE6501C984213DA11B0F0BC7B
:102C5000BB46B246A946A046F0BDA368627920787B
:102C600000F0E8FBBCE646464F46214DE6E74E46FF
:102C70005F46CBE71F4D9B1A5B015D19FAE6702397
:102C8000217A0B4218D1C80982460F330B405B00F2
:102C900098461948EB1853441B7D007899468342A7
:102CA00066D216485B01006881469944002A00D12B
:102CB0005FE14B46002B68D120780021FFF776FDBD
:102CC00080212078FFF772FD8AE6104800F09EFB15
:102CD000012158460EAAFFF7D9F8002800D07FE658
:102CE000EAE7C046A41000208067001058200020AA
:102CF0000020002028680010A5290020D41C0020F6
:102D0000A7290020A4670010042000208D1E0010B9
:102D1000237A0F2BD0D8CF4AEB181B791578AB420A
:102D20003ED3691C9942C7DB5D1BCB4B6D01ED188F
:102D3000686900F06BFB012158466B690EAA984741
:102D4000002800D04CE66022150023791D401A426D
:102D5000B2D163790A3B012BAED800F057FB6379FF
:102D60000A2B00D199E158460EA900F0D9FA37E6AE
:102D7000431C4B4500DAF7E04B461B1A5B019946B2
:102D8000B5488144002A00D1F3E04B46586900F071
:102D90003DFB4B46012158465B690EAA98479CE7CC
:102DA000AE4A5B011568ED18002DC1D184E7A37907
:102DB00099466B789945D6D06B78002B00D033E1DB
:102DC0004B466B70002B00D12BE148460138C0B256
:102DD000FFF7A6FA002800D17EE143780793022B83
:102DE00000D079E10122C179B1468B11491113401C
:102DF0000A40302112015B0113432A78A8468A4316
:102E000013432B7009239A4682445646BA46C37828
:102E100082781B021343C31805938E4B04938E4B89
:102E200008938E4B09938E4B0A93059BB34200D8AF
:102E300055E1737801220B2B03D13378F278F61821
:102E40007378042B00D044E1059B00279B1B9BB2A9
:102E50000693049B0B921D78002303931BE0099AB1
:102E60007B011568ED18002D00D132E13100584684
:102E70002B69069A98478446082803D9069A824205
:102E800000D313E1049B01371D78FFB26B1C03973D
:102E90009F4200DD1DE1BD42E1D8039B5D1B089B05
:102EA0006D019C466544E1E76B780CAA0232137011
:102EB000584601230EA900F049FA91E5E3881A0A61
:102EC000D8B20F2A00D9F7E666499300CB589F463F
:102ED0000EA800F0A1FA5846A179FFF7A7FB02223D
:102EE0002B7813432B707BE5E388012B00D0E3E6BE
:102EF00008222B78584693430EA92B7000F010FA45
:102F00006EE5022029780CAB9A1C8B068908DB0F32
:102F100001400B431380584602230EA900F016FA15
:102F20005EE5E388012B00D0C6E608222B78134328
:102F30002B7018E7237A0F2B00D9BDE6EB181D790B
:102F4000444B1B789D4228D2444B6D011B685D1990
:102F5000002D00D1B0E6686900F058FA012158460A
:102F60006B690EAA9847B8E6002A00D0A4E60023B1
:102F7000994662790220130003928343012B15D0F6
:102F8000002A00D098E62B004344534430331B7989
:102F90000CAA9B07DB0F0232BCE75A1CAA4200DADC
:102FA0008AE6ED1A2C4B6D01ED18D4E7E388002B6F
:102FB00012D1029B1878039B012B23D0FFF7F6FB5D
:102FC00043460221EB18534430331A790A43012156
:102FD0001A711A790A431A714B46002B00D1FFE48B
:102FE000586900F013FA4B4601215B690EAA584656
:102FF0009847002000F00AFA3523EB5CDB0700D588
:10300000EEE4B0E6FFF7ECFB43460221EB18534435
:1030100030331A798A431A711A7903998A431A71DB
:10302000DAE7FFF73FFC9EE600215846FFF708FB72
:103030005846FFF7A5FBAB78074903930491054B6E
:10304000064998461A780591002329001D008A46F2
:103050001BE0C046A529002028680010D41C0020D1
:1030600014200020CC670010059B6A011B689B1888
:10307000002B4DD0DB685846984743461A780135F7
:10308000EDB2511C2B008D422EDC9542ECD39B1AE5
:10309000049A5B0194466344ECE70CAB9A1C5846D7
:1030A00001230EA9157000F051F999E40B9A012A39
:1030B0004FD0002A3CD00023B07804E00133DBB2CB
:1030C0000F71934234D2C118C9B241440D79FF2D1A
:1030D000F4D04E464546574600236B70ECE54E460D
:1030E0005746FFF7DDFB3EE65546542200212800F7
:1030F000FEF7C2FC1022FF21281DFEF7BDFC2800B0
:103100002022FF211430FEF7B7FC039BAB7057E67B
:103110005546FAE7FEF7B6FE021E00D1CCE5D3789D
:1031200091781B020B4358460EA900F00FF9D4E525
:1031300065463B002A0031000A9800F07DFEAC464F
:10314000049B039A1B7866440133934200DB6CE6D0
:10315000BFE7174B29699942ADD1079AABE7FFF753
:103160009BFB021E00D1A7E5584613780EA900F07C
:10317000EDF8B2E52189FFF7D7F8021EF4D19BE5FF
:10318000022A0FD0FFF78AFB021EC8D194E5FFF791
:10319000C3F8021E00D18FE5122358460EA900F095
:1031A000D5F89AE5FFF7BCF8021EB8D184E5C04611
:1031B00029380010F8B557464E46DE4645460C0005
:1031C000E0B516001F00002A3CD01F4B00259A4690
:1031D000702399461D4B9B4617E05B46200099786B
:1031E00000F0ECFD00281FD021004046FFF744FA14
:1031F000002819D0A378DA09012A1CD00A9A0135CF
:1032000013702378E418B5421CDA6378052B0BD1D0
:10321000E3789B079B0FBB4206D153464A461B7877
:103220009846A3781A42D8D00020F0BCBB46B246DC
:10323000A946A046F8BD0B9A013513702378E4180F
:10324000B542E2DB0120F0E7A410002000200020BE
:10325000702270B5094B0C001D788B781A4201D092
:10326000002070BD064B2000997800F0A7FD0028D3
:10327000F6D021002800FFF7FFF9F2E7A4100020A4
:10328000002000200B007F2010B51840DB093433EC
:103290004000044AC018044B1168C01800F04AFDF1
:1032A00010BDC04654200020002000200B007F20CD
:1032B00010B51840DB0934334000044AC018044BF1
:1032C0001168C01800F05EFD10BDC04654200020FB
:1032D0000020002070B57F240F480C4064000419C2
:1032E000CD09641930342079C00701D5002070BDA4
:1032F000012625790948354300782571FFF744FAFE
:103300000028F4D1012223799343237123790332D6
:1033100093432371EAE7C04600200020A410002058
:1033200070B5094C0600082220000D00FEF7AAFB2C
:1033300000238021E360A3602B78300099430022B2
:103340000023FFF7C7FF70BDA41F0020F8B5CE46CD
:1033500047469046264E80B58146082230000D0033
:103360001F00FEF78FFB4346B3600023F381EC7927
:10337000AB7924021C43231CBC4200D93B1C9FB2E6
:10338000B381002C0ED0002F18D04346002B2CD038
:103390003B1C402F1BD89FB233787F2B1CD80021B9
:1033A000144A0FE080212B780022994348460023DD
:1033B000FFF790FFC0BCB946B046F8BD7F2300229E
:1033C000317899433B004846FFF784FFF2E74023FA
:1033D0009FB233787F2BE2D9064C3A004146200059
:1033E000FEF750FB80212200ECE70020E2E7C04618
:1033F000A41F0020C01F002010B514220021024885
:10340000FEF73AFB10BDC046A41F0020014B186117
:103410007047C046A41F002010B5054C01000822CB
:103420002000FEF72FFB0023A360E36010BDC04621
:10343000A41F002070B5384C1D0023780600DA095F
:10344000C9098A4210D00020002D00D070BD210093
:103450003000FFF703F92369002B03D0220003217A
:10346000300098470120F1E7A0687F2B05D800289D
:1034700034D02A002949FEF705FBE289A1685219D8
:10348000E38892B24919E281A160934214D03F2DA2
:1034900012D9A389981A051C80B240282AD820780E
:1034A000ADB27F2828D800219A4232D01B4A2B0087
:1034B0003000FFF70FFFC9E72369002B05D022007A
:1034C00002213000984700280AD08021237800226A
:1034D000994330000023FFF7FDFEB7E70020B5E772
:1034E00000213000FFF762F930008021FFF75EF91C
:1034F0000120ABE74025D2E79A4207D0074C2A00CB
:103500002000FEF7BFFA80212200D0E780210022B0
:10351000CDE70022CBE7C046A41F0020C01F00203B
:1035200070B50400FFF7C4F9002800D170BDFFF7A3
:10353000C7F90028FAD1E378002BF7D02500103521
:10354000280000F0F3FD3F28F0D90020E178FFF7D4
:1035500099FE0028EAD0280000F0E8FD3F2808D9AD
:1035600092239B00E218E17840230020FFF7B2FE8F
:10357000DCE7E1780020FFF799FED7E710B50400FB
:10358000FFF796F9002801D1002010BDFFF798F948
:103590000028F9D1B22292006243034B01309B18FC
:1035A0001B791840F1E7C046DC1C0020B2239B00C9
:1035B000434310B50248181800F09AFD10BDC046EC
:1035C000EC1C0020F0B5B226B60046433500C646D6
:1035D0008023204F1035040000B57D195B029A420C
:1035E00000D31D4A280092B200F004FE8046FFF787
:1035F0005FF9002803D1404680BCB846F0BDFFF714
:103600005FF90028F7D1B2239B005C433C19E378B3
:10361000002BF0D0280000F089FD3F28EBD90020D6
:10362000E178FFF72FFE0028E5D0280000F07EFDAE
:103630003F280AD992239B009C4666444023E178A8
:10364000BA190020FFF746FED5E7E1780020FFF722
:103650002DFED0E7DC1C0020FFFF0000F8B50400C1
:10366000FFF726F9002801D10020F8BDFFF728F95F
:103670000028F9D1B2239B005C432500144E243569
:10368000AD19280000F034FD0028EDD037190020D6
:10369000B978FFF7F7FD0028E6D0A2239B009C46EF
:1036A0006444A41921002800402200F0A3FDB97849
:1036B000051E08D0030022000020FFF70BFE0028A3
:1036C000D2D02800D1E70020FFF7F0FDCCE7C046BC
:1036D000DC1C002070B5B224A40044430B4B050051
:1036E000E41880235B029A4200D3094A200092B278
:1036F00000F048FE0600200000F0FAFC3F2801D848
:10370000300070BD2800FFF7A9FFF9E7001D002079
:10371000FFFF0000B2239B00434310B50248181876
:1037200000F004FD10BDC046001D0020B222F0B51F
:1037300000251B4C83B0002120009200FEF79CF96D
:10374000184B80261D70FF236371E1235B02A36089
:103750002100082320007600A37332003831009541
:10376000073B103000F08EFC21000123200039318E
:103770003200FF310093243000F084FC8E239B0044
:10378000E7183800FDF748F990239B00E618300051
:10379000FDF742F9E56127622663656303B0F0BD7A
:1037A000DC1C0020D81C00200B4B196B00290AD010
:1037B0001A6A002A0DD000221A621A63DA61002206
:1037C0005A63012070471A6A002AFAD0D961196237
:1037D000F7E71A63F3E7C046DC1C002070B50F4C16
:1037E000052200212000FEF747F90D4D2B78DA075E
:1037F00007D50C4C9B070CD50121200000F09EFE44
:1038000070BD2000103000F079FE2B78054C9B072E
:10381000F2D4200000F072FEEEE7C046DC1C00206F
:10382000D81C0020001D0020F0B5C64600B54B791D
:10383000060082B0022B02D18B79022B05D0002525
:10384000280002B080BCB846F0BD214FBB78002BE9
:10385000F5D18B7809253B700C780C196378242BF3
:103860000BD1082A02D821E0AA421FD32378E418FA
:103870005D196378ADB2242BF6D0052B1AD0042B3A
:1038800014D163790A2B11D1237821009846114B6A
:103890000222019301330093300002234144FFF7D9
:1038A00089FC0028CBD00E354544ADB23800FFF777
:1038B00037FEC5E721003000FFF7CAFC0028BED064
:1038C000A3787B7023785D19E4186378ADB2D6E7EE
:1038D000DC1C0020DE1C0020F8B5602314001278E8
:1038E000050013400020202B12D12F4A637927793D
:1038F00016781B023B439E420AD16378222B1AD0D2
:1039000007D8202B3CD0212B02D1012930D0012017
:10391000F8BD232BFCD1012940D00329F7D1234B3B
:10392000002BF4D0E178A37809020020194300E0CD
:1039300000BF0120ECE7012930D00329E7D10125A0
:103940002E00A378E478023924021C431471264027
:1039500024321000714000F0F1FD154B002BD6D041
:103960006208002031002A4000E000BF0120CFE7BC
:103970000723210028000F4AFFF7E8FC0120C7E7D2
:103980000129F5D00329C2D10B4B002BBFD008323F
:1039900000201100FEF79AFA0120B9E72100280063
:1039A000FFF7BEFC0120B3E7DC1C00200000000094
:1039B00000000000E41C0020CD1E0010F0B54F46B2
:1039C0004646D646374DC0B5EA781F0080460C0003
:1039D000AB788A423BD08B4210D00020E0BCBA4684
:1039E000B146A846F0BD304B002B04D02F4800F064
:1039F00095FB002853D02800FFF792FDAB78A34237
:103A000001D00120EAE72A4B002B02D0002000E081
:103A100000BF0020FFF722FE0028F2D1254C200035
:103A200000F066FB0028ECD1002FEAD0BF06E8D1F9
:103A3000243C4046A178FFF725FC0028E1D0002374
:103A400000224046A178FFF745FC0120C6E79223FB
:103A50009B00EE1810239A46AA4431005046BAB291
:103A600000F090FC144B002BBDD06B79FF2BBAD02B
:103A7000002FB8D0F219914603E00136B145B2D01B
:103A80006B7932789A42F8D1504600F047FB002813
:103A9000F3D15346103B597900E000BFEDE700E059
:103AA00000BFA8E7DC1C002000000000EC1C002088
:103AB00000000000001D002000000000B32270B5CF
:103AC000144C84B0002120009200FDF7D5FF231D87
:103AD00002932300200080254026CD336D00FF3364
:103AE000A930009300220023002103960195FF30A6
:103AF00000F0BCF9230020004433A83402930122D3
:103B000000230021039601950094843000F0AEF963
:103B100004B070BD1C21002010B5054C200000F041
:103B2000DBF920002538FF3800F0D6F9012010BD60
:103B3000C422002010B5064C00232000B130FF3015
:103B4000237000F0DBFC20008C3000F0D7FC10BDAF
:103B50001C210020F0B557464546DE464E46E0B5EE
:103B60004B7980460F0083B0FF2B28D1454B0C7852
:103B70009946AA234946FF33CB5C002B1FD18533DE
:103B8000CE5C002E1BD1BB783C190B703B79002B0F
:103B900012D0D8235B004B449A468C234B449B465F
:103BA000A5186378052B05D111E02378E418637814
:103BB000052B0CD0A542F8D8E01B80B200E0002015
:103BC00003B0F0BCBB46B246A946A046F0BDA54234
:103BD000F2D921004046FFF73BFB0028EFD0A37845
:103BE0000136F6B2DB09012B29D0504600F086FCE5
:103BF000AA234946A278FF33CA54637922791B026B
:103C00001343214A5B0594465B0DD42163445A4219
:103C100053414A4602204900525C5B0082431343F1
:103C20004A46535451464046083900F0BDF9002831
:103C3000C5D02378E4183B79B342B2D8BCE75846E4
:103C400000F05CFC5A468523A1788C3AD154637904
:103C500021791B020B430C495B058C465B0D6344C9
:103C600059424B4184215B0001930223505C9843ED
:103C7000019B0343535459460020083900F062F970
:103C8000D7E7C0461C21002000FEFFFFF8B5AA259B
:103C900006001F48FF35455D1F008D4215D0852366
:103CA000C35C00208B420FD11A4B002B04D0390487
:103CB0000020090C00E000BF174C3000210000F08C
:103CC00041F9002814D00120F8BDDA235B00C35A63
:103CD000002B14D1114B002B04D000201049BAB294
:103CE00000E000BF30000F4900F05EF90120EBE773
:103CF0003A002100300000F0F1F80120E4E7D6237B
:103D00005B00C158B130BAB2FF3000F03BFBE1E7D5
:103D10001C21002000000000A02100200000000065
:103D200020210020C422002010B50020FEF7D0FD85
:103D300010BDC046037870B5DB0704000E00DD0F30
:103D4000002B17D103785B0701D5280070BD012136
:103D50003000494202F00CFB2378DB07DD0F002B1B
:103D60000AD123785B0708D4042223780125134362
:103D7000237002E00025E8E70025300002F0D8FAC1
:103D8000E3E7C04670B50C0001210600494220005F
:103D900002F0EEFA33785B07DD0F002B04DB200026
:103DA00002F0C6FA280070BD3378DB0704D4042281
:103DB000337893433370F2E70025F0E743790279D3
:103DC0001B021343C2785B0592075B0D920F022A18
:103DD0001DD0032A0CD00020012A08D102394A4202
:103DE0005141124A9446614499424041C0B27047E1
:103DF00002394A1E91410E4A494211408022D200A6
:103E000094460020614499424041C0B2EFE7022944
:103E100005D0002040229A424041C0B2E7E7054A5F
:103E2000981843425841C0B2E1E7C046FF03000082
:103E300040FCFFFF00FEFFFF8A1870B5914207D2D9
:103E40007F264C78052C04D00C7809198A42F8D8C2
:103E500070BD34008D782C4064000419ED09635561
:103E60000C7809198A42ECD8F2E7C046F0B5C6468C
:103E700000B582B0150008AA40CA040017880BAA32
:103E80001288012090460A002178024081432000D8
:103E9000114321703A00009331000123083000F0F3
:103EA000F1F8002E01D0002F08D10A9B0120636099
:103EB0004346638002B080BCB846F0BD26001C3685
:103EC0003000FCF7A9FD0023002D01D033000026AF
:103ED0006361A661E9E7C04601207047F8B5022496
:103EE0000B7807001C4063425C41144B64421C4049
:103EF000134B08009C4608300D001600644400F087
:103F0000F7F8002807D1002E05D0344203D1012450
:103F10002B781C4201D00020F8BD38006978FFF7EB
:103F2000B1F90028F7D02B781C42F4D100230022ED
:103F300038006978FFF7CEF9EEE7C04640FEFFFF94
:103F4000FF010000F8B50D000835060028000C0040
:103F500000F0CEF8002803D0012723781F4201D0BB
:103F60000020F8BD30006178FFF78CF90028F7D009
:103F700028006288616800F03DF92378051E0BD0A7
:103F80001F42EDD10300626830006178FFF7A2F9AB
:103F90000028E5D02800E4E71F42E1D13000617835
:103FA000FFF784F9DCE7C046F8B5CE46474680B552
:103FB0008A8905000C000B78002A07D101261E42D1
:103FC0003FD00020C0BCB946B046F8BD9B0734D5F1
:103FD000FE2380261B029946B600270008373800CA
:103FE00000F0A4F88642ECD80122237890461A42C9
:103FF000E7D128006178FFF745F90028E1D03800C3
:1040000000F094F8864231D84146237862881942FC
:10401000D7D14B461840061C904200D9161CB6B2A8
:1040200000226178002E00D0626833002800FFF77C
:1040300051F90028C5D03000C4E7114B40269946FD
:10404000CBE74978FFF71EF90028BAD022786388B9
:104050001642B6D100226178002B00D06268280099
:10406000FFF738F90028ACD06088ABE742462378E8
:104070001A42A6D128006178FFF718F9A1E7C046D7
:10408000C0FF0000F0B5C64600B5040006A80578DC
:104090008020884617001E000002824226D8E06871
:1040A000002803D00121494202F062F9206900286A
:1040B00003D00121494202F05BF9434623607304B7
:1040C0005B0CED031D430023E0686381A780E5805E
:1040D0002381002801D002F02BF92069002801D0AB
:1040E00002F026F9012080BCB846F0BD0020FAE7B6
:1040F00010B5048941898288A3B288B28C4207D363
:104100001B1A9BB2101C9A4200D9181C80B210BD19
:104110005100091A5B189BB2F4E7C0460389408935
:10412000181A43425841C0B27047C04610B50489BE
:1041300041898288A3B288B28C4207D31B1A9BB2F2
:1041400000209A4201D9D21A90B210BD5100091A2A
:104150005B189BB2F4E7C04670B5040000690E001E
:10416000002803D00121494202F002F92589608923
:10417000A288A9B283B285422CD3CD1AADB2002D4C
:104180002ED0AA4208D2914230D3891A8BB26381D1
:104190009A4203D89B1A9BB29A42FBD9E2882168C3
:1041A0005204520C53433000C918FDF76BFC63896D
:1041B0000125591C89B2A2888B4213D900215200D3
:1041C000891A89B220696181002801D002F0B0F813
:1041D000280070BD5500ED1A4D19ADB2002DD0D19B
:1041E000618989B252009142ECDBE9E789188BB210
:1041F0006381CDE7F0B546464F46D646C0B50600CA
:10420000006989469046002803D00121494202F006
:10421000AFF831897289B5888BB294B2914254D388
:104220001F1BBFB2002F4AD0BD4205D2AB4251D2B4
:104230005B199CB22F0074814346B8453DD89FB2AC
:10424000A54203D8641BA4B2A542FBD9F288316809
:104250005204520C904662432B1B9BB28918424673
:104260009F4225D953439BB21A0048469A46FDF710
:1042700009FC434648467D1B64195C433168504441
:10428000A2B2FDF7FFFB7189B588CB199BB26A001A
:10429000994216D99B1A9BB230697381002801D0CC
:1042A00002F046F83800E0BCBA46B146A846F0BD78
:1042B00048467A43FDF7E6FBE5E73B1CBFE7738919
:1042C0009BB26A009342E7DBE4E76F003F1BDF1914
:1042D000BFB2A7E75B1B9CB2ACE7C046F8B50400D1
:1042E000C0680E00002803D00121494202F040F8C6
:1042F000258920896189A288ADB283B28FB28842B4
:1043000029D3DB1B9BB29A4209D8E779FF0906D172
:10431000E068002801D002F00BF83800F8BD9542A3
:104320001ED32B009B1A9BB29342FBD2E2882068DB
:104330005204520C53433100C018FDF7A3FB6B1C11
:104340009BB2A2889D4218D9002352009B1A9BB2AF
:1043500001272381DCE75100C91B5B189BB2D2E720
:104360002B00E28820685204520C53433100C018DD
:10437000FDF788FB0135A288ABB252009342E7DB20
:10438000E4E7C046F0B557464546DE464E46E0B542
:10439000140005000F0083B0002A75D0C068002803
:1043A00003D00121494201F0E3FF2E89E9796A89AE
:1043B000AB88B6B292B2C90945D1964200D36DE03E
:1043C00059008A1AB21892B2002189469A4234D210
:1043D0009A1A111C92B2A24200D9211C8AB29146AB
:1043E000EA885204520C90464A46B21892B292465B
:1043F0004A46D21A92B2934634009E4203D3E41A3C
:10440000A4B29C42FBD24246624328681B1B9BB26B
:10441000801842464B4554D34B4639005A43FDF76A
:1044200031FBAB885B00564501D89A4503DB524609
:10443000D31A9BB29A4653462B81E868002825D0B0
:1044400001F076FF22E0E9884904490C88469C4245
:1044500027D2964247D3B11A89B28C465800E11A46
:1044600089B28B4661460919814208DBD11889B2AD
:104470000E1BB6B28A46B2423BD9361AB6B2A21960
:1044800092B29246A146B7E700239946484603B048
:10449000F0BCBB46B246A946A046F0BDB21A92B2E5
:1044A00092E700218946002BC7D04146E41A4C43CD
:1044B0001600D118002289B28A46994693463F19C0
:1044C0009AE753439BB21A0039005C440193FDF70D
:1044D000D9FA414622004A43019B286892B2F91852
:1044E000FDF7D0FA9DE75800811A711889B28C4601
:1044F000B5E7A146B04200DD7EE7BEE710B5040097
:10450000C068002803D00121494201F031FF206931
:10451000002803D00121494201F02AFF0023E0686E
:1045200063812381002801D001F002FF2069002867
:1045300001D001F0FDFE012010BDC04670B50400A1
:10454000C0680D00002803D00121494201F010FF8E
:104550002069002803D00121494201F009FF7F2191
:10456000E379ED011940E0682943E171002801D0A9
:1045700001F0DEFE2069002801D001F0D9FE012003
:1045800070BDC046484B02009C466244531E9A418F
:104590008023F0B54E46DE46574645465B029C46B4
:1045A000E0B5424B1204624485B002901A60404B61
:1045B0000E0040491A6010000B689843FBD106209A
:1045C000FCF768FF0223029904008C464A680190B8
:1045D0001A4003920A1D9046374AF10D62449146F3
:1045E0001360700200295AD1A04258D88024640078
:1045F0000227A246B446B30DB20204E0019E9642E1
:104600000AD322002B000237574505D004000D00C5
:10461000A4185D41002BF1D06646019B80259A4687
:10462000B3463C02E41B6D002E00013D002D38D046
:1046300021005046FDF716F9E41B8345F4D2310002
:1046400079432D02029CFF228026A446276123681D
:1046500012026B4076016644134033608023039A54
:104660009B0143441A604D460222072760682A6076
:10467000256810406F40CF253D40356018600F48D9
:10468000844603206444206001981A60FDF7EAF82C
:1046900005B0F0BCBB46B246A946A046F0BD022715
:1046A000BBE73900CEE7C0460040FCBF00E0004059
:1046B00000F0004008C0004004300000242000004A
:1046C00070B51A4C0121208801F0A6F8142001F0E1
:1046D000C5F80021208801F09FF8022001F0BEF803
:1046E0000121208801F098F8142001F0B7F8104D4E
:1046F00002E00A2001F0B2F8288801F097F80028BB
:10470000F7D10A2001F0AAF80A4E0021308801F002
:1047100083F8094C0021208801F07EF8122001F076
:104720008FF80121208801F077F80AE0B81C0020FA
:10473000A41C0020B01C0020AC1C00200A2001F0AA
:104740008DF8288801F072F80028F7D10A2001F0CE
:1047500085F83088002101F05FF80021208801F001
:104760005BF8012001F06CF82088012101F054F879
:104770003088012101F050F80021208801F04CF828
:10478000F92001F05DF82088012101F045F830881A
:10479000012101F041F80021208801F03DF80020BE
:1047A00001F04EF82088012101F036F8308801210F
:1047B00001F032F80021208801F02EF8002001F0ED
:1047C0003FF82088012101F027F83088002101F00E
:1047D00023F80021208801F01FF8112001F030F8A3
:1047E0002088012101F018F83088012101F014F827
:1047F0000021208801F010F8032001F021F8208822
:10480000012101F009F83088002101F005F80021AC
:10481000208801F001F8442001F012F820880121DD
:1048200000F0FAFF3088012100F0F6FF0021208817
:1048300000F0F2FF002001F003F82088012100F0D1
:10484000EBFF3088012100F0E7FF0021208800F015
:10485000E3FF0F2000F0F4FF2088012100F0DCFFCF
:104860003088002100F0D8FF0021208800F0D4FF1C
:10487000452000F0E5FF2088012100F0CDFF3088C1
:10488000012100F0C9FF0021208800F0C5FF0020B1
:1048900000F0D6FF2088012100F0BEFF3088012102
:1048A00000F0BAFF0021208800F0B6FF002000F0E1
:1048B000C7FF2088012100F0AFFF3088012100F000
:1048C000ABFF0021208800F0A7FFF92000F0B8FF1F
:1048D0002088012100F0A0FF3088012100F09CFF1A
:1048E0000021208800F098FF002000F0A9FF208818
:1048F000012100F091FF3088002100F08DFF0021A0
:10490000208800F089FF4E2000F09AFF20880121C6
:1049100000F082FF3088012100F07EFF0021208816
:1049200000F07AFF002000F08BFF2088012100F0CA
:1049300073FF3088002100F06FFF0021208800F015
:104940006BFF4F2000F07CFF2088012100F064FF06
:104950003088012100F060FF0021208800F05CFF1A
:10496000002000F06DFF2088012100F055FF308805
:10497000012100F051FF0021208800F04DFF0020B0
:1049800000F05EFF2088012100F046FF3088002102
:1049900000F042FF0021208800F03EFF3C2000F0A4
:1049A0004FFF2088012100F037FF3088012100F0FF
:1049B00033FF0021208800F02FFF052000F040FF8A
:1049C0002088012100F028FF3088002100F024FF1A
:1049D0000021208800F020FF212000F031FF2088F6
:1049E000012100F019FF3088012100F015FF00219E
:1049F000208800F011FF002000F022FF2088012114
:104A000000F00AFF3088012100F006FF0021208815
:104A100000F002FF802000F013FF2088012100F049
:104A2000FBFE3088002100F0F7FE0021208800F016
:104A3000F3FE182000F004FF2088012100F0ECFEB6
:104A40003088012100F0E8FE0021208800F0E4FE1B
:104A5000802000F0F5FE0121208800F0DDFE02E05C
:104A60000A2000F0FBFE288800F0E0FE0028F7D1C5
:104A70000A2000F0F3FE70BDF8B5324E00213088F8
:104A800000F0CAFE304D0021288800F0C5FE242029
:104A900000F0D6FE0121288800F0BEFEFA2710247F
:104AA0000121308800F0B8FE0021288800F0B4FE13
:104AB000013CFF2000F0C4FEA4B20121288800F0D0
:104AC000ABFE002CECD1013FBFB2002FE7D100219B
:104AD000308800F0A1FE0021288800F09DFE2220F1
:104AE00000F0AEFE0121288800F096FE01213088FA
:104AF00000F092FE0021288800F08EFEF72000F0E2
:104B00009FFE0121288800F087FE0021308800F0F8
:104B100083FE0021288800F07FFE202000F090FE18
:104B20000121288800F078FE084C02E00A2000F0FD
:104B300095FE208800F07AFE0028F7D10A2000F0C8
:104B40008DFEF8BDB01C0020AC1C0020A41C002071
:104B5000F8B5CE464746BB4C80B5002107002088FB
:104B600000F05AFE022000F079FE0121208800F0BA
:104B700053FEB54B00219846188800F04DFEB34D0A
:104B80000021288800F048FE3C2000F059FE012159
:104B9000288800F041FE43460121188800F03CFEC1
:104BA0000021288800F038FE802000F049FE012115
:104BB000288800F031FE43460021188800F02CFEC2
:104BC0000021288800F028FE012000F039FE012194
:104BD000288800F021FE43460121188800F01CFEC1
:104BE0000021288800F018FEF92000F029FE01219C
:104BF000288800F011FE43460121188800F00CFEC1
:104C00000021288800F008FE002000F019FE012194
:104C1000288800F001FE43460121188800F0FCFDC1
:104C20000021288800F0F8FD002000F009FE012195
:104C3000288800F0F1FD43460021188800F0ECFDC3
:104C40000021288800F0E8FD112000F0F9FD012185
:104C5000288800F0E1FD43460121188800F0DCFDC2
:104C60000021288800F0D8FD032000F0E9FD012193
:104C7000288800F0D1FD43460021188800F0CCFDC3
:104C80000021288800F0C8FD442000F0D9FD012152
:104C9000288800F0C1FD43460121188800F0BCFDC2
:104CA0000021288800F0B8FD002000F0C9FD012196
:104CB000288800F0B1FD43460121188800F0ACFDC2
:104CC0000021288800F0A8FD0F2000F0B9FD012187
:104CD000288800F0A1FD43460021188800F09CFDC3
:104CE0000021288800F098FD452000F0A9FD012151
:104CF000288800F091FD43460121188800F08CFDC2
:104D00000021288800F088FD002000F099FD012195
:104D1000288800F081FD43460121188800F07CFDC1
:104D20000021288800F078FD002000F089FD012195
:104D3000288800F071FD43460121188800F06CFDC1
:104D40000021288800F068FDF92000F079FD01219C
:104D5000288800F061FD43460121188800F05CFDC1
:104D60000021288800F058FD002000F069FD012195
:104D7000288800F051FD43460021188800F04CFDC2
:104D80000021288800F048FD4E2000F059FD012147
:104D9000288800F041FD43460121188800F03CFDC1
:104DA0000021288800F038FD002000F049FD012195
:104DB000288800F031FD43460021188800F02CFDC2
:104DC0000021288800F028FD4F2000F039FD012146
:104DD000288800F021FD43460121188800F01CFDC1
:104DE0000021288800F018FD002000F029FD012195
:104DF000288800F011FD43460121188800F00CFDC1
:104E00000021288800F008FD002000F019FD012194
:104E1000288800F001FD43460021188800F0FCFCC2
:104E20000021288800F0F8FC242000F009FD012171
:104E3000288800F0F1FCFA231B019946B9440024AC
:104E400006E0C046B81C0020B01C0020AC1C0020AE
:104E500043463E5D1888012100F0DEFC00212888D1
:104E600000F0DAFC300000F0EBFC0134012128886E
:104E700000F0D2FC102CEBD11037B945DFD14346FE
:104E80000021188800F0C8FC0021288800F0C4FC2C
:104E9000222000F0D5FC0121288800F0BDFC43460B
:104EA0000121188800F0B8FC0021288800F0B4FC2B
:104EB000FF2000F0C5FC0121288800F0ADFC43462E
:104EC0000021188800F0A8FC0021288800F0A4FC2C
:104ED000202000F0B5FC0121288800F09DFC084C42
:104EE00002E00A2000F0BAFC208800F09FFC0028B5
:104EF000F7D10A2000F0B2FCC0BCB946B046F8BDFC
:104F0000A41C002070B5454CE389B42B3ED01DD8BD
:104F1000002B24D05A2B18D12389013B5B1A0100A6
:104F200098B2238A022B1DD16389013B591A89B299
:104F30002389834209D363898B4206D3E38A022BF8
:104F40002DD0042B3DD0072B54D070BD87256D008C
:104F5000AB42FAD16389013B1B1A080099B2238A3C
:104F6000022BE1D0022B06D8002BE1D023895D1E55
:104F7000281A80B2DDE7032BE7D123895D1E281AAA
:104F8000658980B2013D691A89B2D2E72389013B64
:104F9000181A638980B2013B591A89B2DFE7638A24
:104FA0004B43C10889B25B182168CC18C95C072340
:104FB0000340002A19D1813A1A4113000B40237093
:104FC000C3E7638AC126594383089BB2C9180323E8
:104FD000184040007642134006419B01034125687A
:104FE0006C5C344023436B54AFE780221A41114379
:104FF0002170AAE7638A2568594343089BB2C91800
:105000000123F12403409B0064421C4112011A4118
:10501000685C204002436A5497E7C046BC1C0020ED
:10502000F0B54546DE4657464E469C46E0B587B04D
:1050300010AB1B880590039311AB1D886346049544
:10504000D8888846998807230B405C1EA341203AE4
:105050004243CC081B195A4363461C68A418002815
:105060004ED0FF2D53D0494B00259946434602951B
:10507000E0460193002943D007239B46793300265D
:105080009A46059F17E0B8420BD34B460198DB8840
:10509000834206D3039A01003800FFF733FF4346EB
:1050A0009988073D6B425D4101360137B6B26419FC
:1050B000BFB28E4211D24B465D469888534635406A
:1050C0002B4122781A42DED1B842EAD34B460198EE
:1050D000DB888342E5D3049ADDE74346DA88072379
:1050E0000B40581E8341E418029B01339BB202938C
:1050F0009A4205D9019D0135ABB201930029BBD17C
:1051000007B0F0BCBB46B246A946A046F0BD00259C
:105110001E4B01950293059B25009946E346002905
:10512000EED007234C4600279A46564680223E4042
:1051300032412B781A420DD0029A9388A34209D3A8
:10514000D388434506D341462000039AFFF7DAFE91
:105150005B469988073E73425E4101370134BFB216
:10516000AD19A4B28F42E0D35B46DA8807230B4027
:10517000581E8341019EED180136B3B2019393424C
:10518000BED2434601339BB29846C8E7BC1C002000
:1051900030B503AC25880D4C206002202181E082CF
:1051A0006281A581C8084D0700D0013060820020CF
:1051B000A282E3812082002B04D0B42B02D00B000A
:1051C00011001A00E280A18030BDC046BC1C002046
:1051D000014B18607047C046BC1C002070B5204CC5
:1051E000204BE18A8A1E16001E401A4202D007296F
:1051F00019D070BDA38A002BFBD00025638AC0B2F2
:10520000002BF6D000226B4321688918C854013264
:10521000638A91B28B42F6D80136A28AB6B2B24204
:10522000E7D90135ECE7A38A002BE2D00025002660
:1052300040B203010343628ADBB2002AD9D00021C5
:105240006A432068401883540131628A88B28242DE
:10525000F6D80136A18AB6B2B142CAD90135ECE717
:10526000BC1C0020FDFF0000F0B545464E46DE4662
:105270005746E0B585B01D000EAB1B880600140034
:105280009846A94200D385E0904200D382E0002BEB
:1052900000D186E087224046520094460C3AFF3AFD
:1052A00002409201BA4B0292019532004CE0002874
:1052B00000D107E15A2842D1170018890138401A55
:1052C00080B21D8A022D54D0022D00D9DAE0002DC3
:1052D00000D103E11D89A94601256D424D44281ADC
:1052E00080B281452BD35D89BD4228D3DD8A022D52
:1052F00000D1F6E0042D00D12EE1072D1FD15D8AEB
:105300007D43A94647081D68BFB24F44A946012501
:1053100028408000F23D0541AA464D46ED5D0390D0
:10532000AB4655465846054040460001AA46050092
:10533000039805412800554628434D46E85501325B
:1053400092B2944200D183E098889042F7D3D888F3
:105350008842F4D3D889B42800D1B6E0A7D96045F3
:10536000EDD15F891D8A013FBF1A0800BFB2022D2F
:10537000AAD15D89A94601256D42AA46D1444D4670
:10538000EF1B1D89BFB2A946ABE70131019A89B273
:105390008A4210D105B0F0BCBB46B246A946A04631
:1053A000F0BD8722520091460C3AFF3A0292043235
:1053B0009246774B019532002AE0002800D175E033
:1053C0005A2821D1170018890138401A80B21D8A45
:1053D000022D31D0022D42D8002D36D01D89AC4689
:1053E00001256D426544281A80B260450CD85D895C
:1053F000BD4209D3DD8A022D00D184E0042D00D105
:1054000096E0072D00D1C5E0013292B29442BCD0A3
:1054100098889042F8D3D8888842F5D3D889B428A0
:1054200047D0CAD94845EFD15F891D8A013FBF1ACD
:105430000800BFB2022DCDD15D89AC4601256D4279
:10544000A846C4446546EF1BBFB21D89AC46CCE7F5
:105450000131019A89B28A4200D026E79AE7032DEA
:10546000D2D11D89AC4601256D426544281A5D895B
:1054700080B2A84601256D42AB46D8444546EF1B95
:10548000BFB2B2E7032D00D059E71D89A946012517
:105490006D424D44281A5D8980B2AA4601256D42AD
:1054A000AB46DA445546EF1BBFB21AE70F001000B7
:1054B0008DE718895F890138013F801A7F1A80B211
:1054C000BFB284E70F001000FBE618895F8901383E
:1054D000013F801A7F1A80B2BFB2F2E61D89A94649
:1054E000FFE65D8A7D43A946C7081D68BFB24F44E9
:1054F000A94607250540802028414D46ED5D2843FB
:105500004D46E8551BE75D8A7D43AC46C7081D68DC
:10551000BFB26744AC465546054081204042284111
:10552000804660464546C05D28406546E8556BE7C5
:105530005D8A7D43AC4687081D68BFB26744AC46B0
:10554000029D2840C12540006D4205416046C05D76
:1055500028406546E85557E75D8A7D43A946870898
:105560001D68BFB24F44A94603252840400083462A
:105570005D46029828418246C120404228414D465E
:10558000ED5D2840554628434D46E855D7E6C046D0
:10559000BC1C00205D8A6F434508ADB2AC461D6857
:1055A0006744AC46012528408000F23DCDE7C04667
:1055B000F0B557464E464546DE469A46E0B58DB0B4
:1055C00016AB1C8817AB1B8805940393904B1600F1
:1055D00009AA81460F0003CB03C251461B881380E2
:1055E0008D888C49049630798E888846B14517D8C5
:1055F000CB88BB4200D2FAE00A21FCF733F90C2633
:10560000039B06A98919C0B20A5C48460093390079
:1056100053460194FFF704FD4346049A9E8810798F
:105620004B46EB189BB2AA081C00944669088B46AF
:1056300064445C440792A4B20693B34216D842462F
:10564000D388BB4224D30A21FCF70CF90C2606AA06
:10565000C9B29219525C0599534601910399069873
:1056600000913900FFF7DCFC43469E88B4420FD816
:105670004346DB88BB420BD3059B3A220193039B35
:105680003900009320005346FFF7CAFC43469E882A
:105690004B466C005C44A4B21B199BB29B46049B16
:1056A0005879B34519D84246D388BB4200D28EE020
:1056B0000A21FCF7D7F80C2106AA52180599C0B2A6
:1056C000125C019103995346584600913900FFF747
:1056D000A7FC049B587943469E884A462C19A3B2DE
:1056E000D21892B29346EB18079A4B449B1AAC001F
:1056F0009BB29946A4B2B34516D84346DB88BB4259
:1057000024D30A21FCF7AEF80C2206ABC9B29B18D1
:105710005A5C059B39000193039B584600935346FE
:10572000FFF77EFC43469E88B1450FD84346DB8891
:10573000BB420BD3059B3A220193039B3900009394
:1057400048465346FFF76CFC43469E88069B9C46A2
:105750006444049BA4B265199879ADB2B44218D8D8
:105760000A21FCF77FF80C2106AA52184146CB8883
:10577000C0B2125CBB4223D30599534601910399F1
:10578000200000913900FFF74BFC049B98794346B9
:105790009E880A21FCF766F80C2206ABC9B29B185A
:1057A0005A5CAE420CD34346DB88BB4208D3059B10
:1057B00039000193039B280000935346FFF730FC08
:1057C0000DB0F0BCBB46B246A946A046F0BD4A4665
:1057D0002C19A3B2D218AC0092B2A4B29642B5D2A0
:1057E000079AEB184B449B1A9BB299469CE74B4691
:1057F000AA08EB189BB207926A08934606939E424A
:1058000000D345E79C46AC0864445C44A4B22DE751
:105810008C650010BC1C00200123D022834012069E
:10582000002901D0536170479361FCE70122D02326
:1058300082401B065B6813405A1E9341D8B27047E2
:1058400000B583B06B460122D91D0870024800F0F4
:1058500097FD03B000BDC0460000044010B5FBF743
:1058600073FC10BDF0B50C22C6461D4B00B51A6086
:1058700008231C4C1C4F1D4E236005333B60043B2A
:1058800033601B4B023A1A601A4B01320C201A602B
:10589000D025FAF7D5FD80232D065B016B622388A6
:1058A000012498461800FAF7CBFD424623009340A6
:1058B0006B62338898461800FAF7C2FD424623000F
:1058C00093403F886B623800FAF7BAFD2300BB4073
:1058D000AB6233889C406C6180BCB846F0BDC0466A
:1058E000B81C0020B01C0020A41C0020AC1C002010
:1058F000A81C0020B41C002010B5FCF709FAFFF723
:10590000B1FF09490948FEF73DFE094B012118681E
:10591000FAF77CFD074B01211868FAF777FD064876
:10592000FCF746FA002010BD00093D0000000440CD
:10593000A81C0020B41C002098650010F0B54E464D
:105940004546DE465746E0B50D000B35060085B0EE
:10595000162D27D8102900D9DAE000F02FFC1025E9
:1059600018230221C84FFB181A005C68083A9442B9
:1059700000D147E103226368A1689343E268CA60EB
:1059800091600121E3185A6830000A435A6000F020
:1059900017FC2000083005B0F0BCBB46B246A94653
:1059A000A046F0BD07239D4300D5B1E0A94200D930
:1059B000AEE000F003FCFC235B009D4200D296E1C8
:1059C000690A00D1A8E0042900D950E1382398469B
:1059D000A90988443931CB00082252429446AA4F83
:1059E000FB189C446346DC68A44514D00323994605
:1059F0000B0061469C4607E0E068002A00DBFBE004
:105A0000814200D1FCE004004A46636893435A1B7C
:105A10000F2AF1DD41463A003C690832944200D138
:105A2000D9E0032063688343581B0F2800DD62E13F
:105A30003A617A610028A4DA7A689046802292005E
:105A4000934200D3E4E0DA0858090123834040463A
:105A500018438046D300DB199A687860E360A2603F
:105A60009C60D46001208B10984040455CD8434630
:105A700003420AD1032399434346400004310342C1
:105A800003D1400004310342FBD00323B3469C46BC
:105A90000E00B8460190F00040440100B246CB68C9
:105AA0000BE064465A681F00A243DB68541B0F2CAE
:105AB00000DDEFE0002C00DB09E19942F1D1012388
:105AC0009946CA44534608319B07E8D1032205E0B2
:105AD00003680838013E834200D003E23242F7D126
